:100000000C9435000C945D000C945D000C945D0024
:100010000C945D000C945D000C945D000C945D00EC
:100020000C945D000C945D000C945D000C945D00DC
:100030000C945D000C945D000C945D000C945D00CC
:100040000C9415070C945D000C94A2050C947C058F
:100050000C945D000C945D000C945D000C945D00AC
:100060000C945D000C945D00AC0711241FBECFEF13
:10007000D8E0DEBFCDBF11E0A0E0B1E0EEEAF4E1F0
:1000800002C005900D92A433B107D9F725E0A4E38F
:10009000B1E001C01D92AB3BB207E1F710E0C5E350
:1000A000D0E004C02197FE010E944A0AC433D10760
:1000B000C9F70E94E8070C94550A0C94000080E9E7
:1000C00091E00895219A089580E090E00895FC0160
:1000D000858596850895CF93DF9300D000D000D01A
:1000E000CDB7DEB7AB011C821D821E82DC01ED9113
:1000F000FC910190F081E02D19821A821B829E01F1
:100100002F5F3F4FBE016C5F7F4F099526960FB65C
:10011000F894DEBF0FBECDBFDF91CF9108954F920F
:100120005F926F927F928F92AF92BF92CF92EF9237
:10013000FF920F931F93CF93DF933C01EB010E943B
:10014000D405F30127853089621B730B6A30710572
:10015000B0F3F894E881F98155B1526085B18D7F93
:1001600085B96A859F81262F291B922F2F83BF84F3
:100170004A805B807D85FC84EE847F5FF394E3940A
:100180003E814885A984CB841181D20120E0C32F10
:10019000022F322F3181112788943111390F08F441
:1001A0003FEF9195889470FD130F1795889471FD1A
:1001B000130F1795889472FD130F1795889473FD8C
:1001C000130F1795889474FD130F1795889475FD78
:1001D000130F1795889476FD130F1795889477FD64
:1001E000130F17958894232F7111212F960F122F1B
:1001F000002C55B900C017FF85B93081222788949B
:1002000000C000C0002C85B931113C0F00C0002C8B
:1002100055B900C016FF85B908F43FEFC195889421
:1002200000C000C0002C85B9F0FC230F00C0002CDA
:1002300055B900C015FF85B927958894F1FC230FA7
:1002400000C000C0002C85B92795889400C0002C00
:1002500055B900C014FF85B9F2FC230F2795889487
:1002600000C000C0002C85B9F3FC230F00C0002C97
:1002700055B900C013FF85B927958894F4FC230F66
:1002800000C000C0002C85B92795889400C0002CC0
:1002900055B900C012FF85B9F5FC230F2795889446
:1002A00000C000C0002C85B9F6FC230F00C0002C54
:1002B00055B900C011FF85B927958894F7FC230F25
:1002C00000C000C0002C85B92795889400C0002C80
:1002D00055B900C010FF85B9132FF110122FCA0DA8
:1002E00000C000C0002C85B900C000C0002C55B96A
:1002F00000C017FF85B932812227889400C000C052
:10030000002C85B93111340F00C0002C55B900C044
:1003100016FF85B908F43FEFEB0DF11D00C000C0DA
:10032000002C85B9E0FC230F00C0002C55B900C09B
:1003300015FF85B927958894E1FC230F00C000C004
:10034000002C85B92795889400C0002C55B900C0B1
:1003500014FF85B9E2FC230F2795889400C000C0E4
:10036000002C85B9E3FC230F00C0002C55B900C058
:1003700013FF85B927958894E4FC230F00C000C0C3
:10038000002C85B92795889400C0002C55B900C071
:1003900012FF85B9E5FC230F2795889400C000C0A3
:1003A000002C85B9E6FC230F00C0002C55B900C015
:1003B00011FF85B927958894E7FC230F00C000C082
:1003C000002C85B92795889400C0002C55B900C031
:1003D00010FF85B9132FE110122F419500C000C006
:1003E000002C85B94C0D00C000C055B900C017FFE6
:1003F00085B931812227889400C000C0002C85B9BE
:100400003111390F00C0002C55B900C016FF85B955
:1004100008F43FEF9195889400C000C0002C85B986
:1004200070FD230F00C0002C55B900C015FF85B921
:100430002795889471FD230F00C000C0002C85B95A
:100440002795889400C0002C55B900C014FF85B9C9
:1004500072FD230F2795889400C000C0002C85B939
:1004600073FD230F00C0002C55B900C013FF85B9E0
:100470002795889474FD230F00C000C0002C85B917
:100480002795889400C0002C55B900C012FF85B98B
:1004900075FD230F2795889400C000C0002C85B9F6
:1004A00076FD230F00C0002C55B900C011FF85B99F
:1004B0002795889477FD230F00C000C0002C85B9D4
:1004C0002795889400C0002C55B900C010FF85B94D
:1004D000132F7111122F960F00C000C0002C85B988
:1004E000119709F086CE20EE31E0D2010E942F0A4A
:1004F000DC01CB01F4E0B695A79597958795FA9521
:10050000D1F720E030E0A9016AE9469E040C411DC4
:10051000569E400D511D1124450D511D840F951FF0
:10052000A11DB11D893E43E09407A105B10508F462
:1005300034C0885E9340A109B10942E0B695A79501
:10054000979587954A95D1F747E0849F080E211D1E
:10055000949F200D311D1124290F311D60914E01F2
:1005600070E0860F971F820F931F40914F015091AB
:1005700050016091510170915201292F3327420F90
:10058000531F611D711D40934F01509350016093A3
:1005900051017093520180934E0178940E94D405CA
:1005A000F301708B6787DF91CF911F910F91FF90BF
:1005B000EF90CF90BF90AF908F907F906F905F90B3
:1005C0004F9008950F931F93CF93DF93CDB7DEB76E
:1005D00062970FB6F894DEBF0FBECDBF8C01F90154
:1005E000DC011C968C917A8369835C834B835E83E8
:1005F0004D8390819D8791819E8792819F878130D5
:1006000029F4CE0101960E945F0706C01C861B8656
:100610001A86198618861F8283E0888B1A8A198A9F
:10062000D801ED91FC910484F585E02DBE016F5F4A
:100630007F4FC801099562960FB6F894DEBF0FBED2
:10064000CDBFDF91CF911F910F9108950F931F930D
:10065000CF93DF93CDB7DEB762970FB6F894DEBFC6
:100660000FBECDBF8C01F901DC011C968C917A8301
:1006700069835C834B835E834D8390819D879181E9
:100680009E8792819F87813029F4CE0101960E9436
:100690005F0706C01C861B861A86198618861F826D
:1006A000188A1A8A198AD801ED91FC910484F5857B
:1006B000E02DBE016F5F7F4FC801099562960FB6AE
:1006C000F894DEBF0FBECDBFDF91CF911F910F9188
:1006D00008958F929F92AF92BF92CF92DF92EF9246
:1006E000FF920F931F93CF93092E000CAA0BBB0B05
:1006F0009C01AD012450310941095109AFEFB0E02F
:100700000E94C3092EEC30E040E050E00E94A409B2
:10071000C22F422F532F80914901E82FF0E0EE0FB6
:10072000FF1FEB5CFE4FC080D1800D2C000CEE084B
:10073000FF0800914A0110914B0120914C0130912A
:100740004D010C191D092E093F0951834083052EC7
:10075000000C660B770B48015901840E951EA61EEE
:10076000B71E80924A0190924B01A0924C01B09228
:100770004D018F5F6AE00E940F0A909349018091BA
:1007800034018A3018F48F5F80933401C0903401B3
:100790002C2D30E040E050E0C501B4010E94A409D6
:1007A000822F2093D7047C2F3C2F3F71330F330FC0
:1007B000932F990F25E5392F329F030E30E0311D1D
:1007C00011246C2F60745C2F5072C7FD21C0611121
:1007D0000BC0511104C0632F6095432F12C045E533
:1007E000430F30E06BEA3AC051110DC0492F2AEA9D
:1007F000429F040E40E0411D11246BEA641B4AEA4B
:10080000430F30E02BC090E0432F409560E026C0BE
:10081000611113C051110DC0392F2AEA329F030E06
:1008200030E0311D11244BEA431B95E5930F30E076
:1008300048C0932F909540E044C0511106C065E533
:10084000630F9BEA931B392F05C06AEA630F90E0A0
:10085000231B322F40E07F3F09F420C050E0772374
:1008600021F0779F512D09F05F5F5523A1F066239A
:1008700021F0659F060E60E0611D442321F0459F35
:10088000040E40E0411D332321F0359F030E30E07C
:10089000311D112403C030E040E060E0609353015B
:1008A0004093540130935501CF911F910F91FF90C8
:1008B000EF90DF90CF90BF90AF909F908F900C946F
:1008C000F905632F392FCACFCF92DF92EF92FF92B3
:1008D0000F931F93CF93DF936C017A018B01C0E0DC
:1008E000D0E0CE15DF0589F0D8016D918D01D601DC
:1008F000ED91FC910190F081E02DC6010995892BC5
:1009000011F47E0102C02196ECCFC701DF91CF9197
:100910001F910F91FF90EF90DF90CF900895089571
:1009200080E090E00895FC01538D448D252F30E048
:10093000842F90E0821B930B541710F0CF960895EC
:1009400001970895FC01918D828D981761F0828D39
:10095000DF01A80FB11D5D968C91928D9F5F9F73F3
:10096000928F90E008958FEF9FEF0895FC01918D95
:10097000828D981731F0828DE80FF11D858D90E002
:1009800008958FEF9FEF0895FC01918D228D892F9F
:1009900090E0805C9F4F821B91098F739927089587
:1009A0008EE195E00E94C40421E0892B09F420E047
:1009B000822F0895FC01848DDF01A80FB11DA35A79
:1009C000BF4F2C91848D90E001968F739927848F6F
:1009D000A689B7892C93A089B1898C9180648C9366
:1009E000938D848D981306C00288F389E02D808151
:1009F0008F7D80830895EF92FF920F931F93CF9383
:100A0000DF93EC0181E0888F9B8D8C8D981305C05E
:100A1000E889F989808185FD24C0F62E0B8D10E0D0
:100A20000F5F1F4F0F731127E02E8C8DE8120CC043
:100A30000FB607FCFACFE889F989808185FFF5CFE9
:100A4000CE010E94DA04F1CF8B8DFE01E80FF11D7B
:100A5000E35AFF4FF0820B8FEA89FB898081806225
:100A600007C0EE89FF896083E889F9898081806405
:100A7000808381E090E0DF91CF911F910F91FF90F3
:100A8000EF900895CF93DF93EC01888D8823C9F010
:100A9000EA89FB89808185FD05C0A889B9898C9187
:100AA00086FD0FC00FB607FCF5CF808185FFF2CF22
:100AB000A889B9898C9185FFEDCFCE010E94DA0417
:100AC000E7CFDF91CF91089580E090E0892B29F066
:100AD0000E94D00481110C94000008952FB7F8945F
:100AE00060914F017091500180915101909152019C
:100AF0002FBF08950E94500A1F920F920FB60F92B7
:100B000011242F933F934F935F936F937F938F9312
:100B10009F93AF93BF93EF93FF938EE195E00E9475
:100B2000DA04FF91EF91BF91AF919F918F917F91E7
:100B30006F915F914F913F912F910F900FBE0F904A
:100B40001F9018951F920F920FB60F9211242F939A
:100B50008F939F93EF93FF93E0912E05F0912F05D4
:100B60008081E0913405F091350582FD12C09081BD
:100B7000809137058F5F8F7320913805821751F070
:100B8000E0913705F0E0E25EFA4F958F80933705EC
:100B900001C08081FF91EF919F918F912F910F90D4
:100BA0000FBE0F901F9018953FB7F8948091E60400
:100BB0009091E704A091E804B091E90426B5A89BC0
:100BC00005C02F3F19F00196A11DB11D3FBFBA2FDF
:100BD000A92F982F8827820F911DA11DB11DBC013F
:100BE000CD0142E0660F771F881F991F4A95D1F704
:100BF00008953F924F925F926F927F928F929F9251
:100C0000AF92BF92CF92DF92EF92FF920F931F931A
:100C1000CF93DF9300D01F92CDB7DEB7F82E80912F
:100C2000DA049091DB04A091DC04B091DD04892BFF
:100C30008A2B8B2BE9F00E94D40500911A051091A4
:100C40001B0520911C0530911D05DC01CB01801B8B
:100C5000910BA20BB30B0091DA041091DB042091ED
:100C6000DC043091DD0480179107A207B307B8F2C6
:100C70000E94D40560931A0570931B0580931C0590
:100C800090931D05E091E204F091E304309759F050
:100C90004091DE045091DF046091E0047091E10422
:100CA0008F2D0995F82E00911805109119054F2CDC
:100CB000512C612C712C0115110509F461C0D8016A
:100CC0001C96EC901C978091D8049091D90484369E
:100CD000910510F41C961C92D801ED91FC91A28014
:100CE000B38019821A821B82F11014C0F801458565
:100CF0005685628173819E012F5F3F4FC801F501C8
:100D00000995D8011C96EC921C9714960D911C9194
:100D10001597D1CFF8013996CE0101966C014801A3
:100D20009CE0890E911CDF0113973C9021913320A8
:100D300001F12223F1F0822F90E0A0E0B0E09C01CD
:100D4000AD012F5F3F4F4F4F5F4FC301B2010E9474
:100D5000FF099B01AC01832D90E0A0E0B0E0BC0155
:100D6000CD016F5F7F4F8F4F9F4F0E94FF09D601CC
:100D70008C93BFEFCB1ADB0AE815F905A1F6B6CFC5
:100D800080911605909117058C010F5F1F4F1093EE
:100D900017050093160549979CF10E946E054B01BB
:100DA0005C0188EE93E0089FB001099F700D189FC9
:100DB000700D1124072E000C880B990BC0901205A2
:100DC000D0901305E0901405F0901505A50194014D
:100DD0002C193D094E095F090E94CE093093D904B0
:100DE0002093D80410921705109216050E946E05E4
:100DF0006093120570931305809314059093150565
:100E00000F900F900F90DF91CF911F910F91FF9056
:100E1000EF90DF90CF90BF90AF909F908F907F909A
:100E20006F905F904F903F9008951F920F920FB672
:100E30000F9211242F933F938F939F93AF93BF9360
:100E400080914F0190915001A0915101B0915201B8
:100E50003091E50423E0230F2D3720F40196A11DE6
:100E6000B11D05C026E8230F0296A11DB11D2093D8
:100E7000E50480934F0190935001A0935101B093EA
:100E800052018091E6049091E704A091E804B091AA
:100E9000E9040196A11DB11D8093E6049093E70437
:100EA000A093E804B093E904BF91AF919F918F9113
:100EB0003F912F910F900FBE0F901F901895EF92BA
:100EC000FF920F931F93CF93DF93EC019091E40473
:100ED0009F5F292F27702093E40490FF02C090E8C1
:100EE00001C090E021FD9064247009F0906220E13F
:100EF000290FFE013C967E018FE0E80EF11C00E018
:100F000011E06191662331F070E0C8010E941B0A74
:100F10006F5F01C060E0DF0114976C93322F369F42
:100F2000030E30E0311D1124CF010797311103C0AA
:100F3000EC01188203C03150EC013883662311F0B4
:100F400061506C93EE15FF05E1F6DF91CF911F9193
:100F50000F91FF90EF900895EEE1F5E01382128279
:100F600088EE93E0A0E0B0E084839583A683B78306
:100F700086E291E09183808385EC90E09587848779
:100F800084EC90E09787868780EC90E0918B808B53
:100F900081EC90E0938B828B82EC90E0958B848B3C
:100FA00086EC90E0978B868B118E128E138E148EAA
:100FB000E7EDF4E08FEF80831282118214861386AE
:100FC0008FEF9FEFDC0187839087A187B287089519
:100FD000789484B5826084BD84B5816084BD85B514
:100FE000826085BD85B5816085BD80916E00816020
:100FF00080936E00109281008091810082608093C6
:1010000081008091810081608093810080918000C7
:101010008160809380008091B10084608093B100F2
:101020008091B00081608093B00080917A008460EC
:1010300080937A0080917A00826080937A00809118
:101040007A00816080937A0080917A008068809332
:101050007A001092C100E0912E05F0912F0582E0F8
:101060008083E0912A05F0912B051082E0912C05F8
:10107000F0912D0580E1808310923605E0913205D4
:10108000F091330586E08083E0913005F0913105E1
:10109000808180618083E0913005F091310580810D
:1010A00088608083E0913005F0913105808180680F
:1010B0008083E0913005F091310580818F7D8083C0
:1010C0008091FD04811145C01092EF041092EE044E
:1010D0008FEF8093F2048093F3048093F404809361
:1010E000F5048093F6048093F70481E08093F8047C
:1010F0001092FA041092F9041092F1041092F00484
:101100008091180590911905892B31F48CEE94E0AB
:101110009093190580931805E091EA04F091EB048F
:10112000309721F08CEE94E0958384838CEE94E0EC
:101130009093EB048093EA041092FC041092FB0459
:1011400084E191E09093ED048093EC0481E080933E
:10115000FD04E091EC04F091ED040480F581E02DB4
:101160008CEE94E0099583E591E09093EF048093F1
:10117000EE048CE291E09093FA048093F904E091FC
:10118000EC04F091ED040284F385E02D8CEE94E004
:101190000995009729F19C0140E050E060E472E479
:1011A0008FE090E00E94A409722F632F0091DA046F
:1011B0001091DB042091DC043091DD04872F962F01
:1011C000DA0180179107A207B30710F4D901C8010B
:1011D0008093DA049093DB04A093DC04B093DD04E5
:1011E00080E48093D704D1E0C0911105C11117C0EC
:1011F0000E946E0500910D0510910E0520910F05BE
:1012000030911005AB01BC01401B510B620B730BFD
:10121000493E53406105710508F082C038C00E9404
:101220006E050091090510910A0520910B0530917A
:101230000C05AB01BC01401B510B620B730B493811
:1012400053416105710518F1D901C80188579C4EB9
:10125000AF4FBF4F8093090590930A05A0930B05EC
:10126000B0930C0520910705309108058091050584
:10127000909106052817390731F49C012350310954
:1012800022303105F0F490930805809307058EE134
:1012900095E00E94C4041816190634F58EE195E015
:1012A0000E94A2049093060580930505C11106C013
:1012B000892BD1F4D093110561E00DC081309105E7
:1012C00019F41092110529C0843091054CF00E9448
:1012D0006903609105058EE195E00E94FB041DC045
:1012E00084E090E00E94690383E591E0FC01E2580C
:1012F000FC4F2081339620833297208133962083C0
:10130000329720813396208303972DEF823D9207F9
:1013100069F78091D7040E94F9050E94640564CFA3
:10132000D901C80188519C4FAF4FBF4F80930D0525
:1013300090930E05A0930F05B093100560E08EE129
:1013400095E00E94FB04A3CF052E97FB1EF40094AA
:101350000E94BB0957FD07D00E94CE0907FC03D0AD
:101360004EF40C94BB0950954095309521953F4F14
:101370004F4F5F4F089590958095709561957F4F81
:101380008F4F9F4F08950E94F009A59F900DB49F25
:10139000900DA49F800D911D11240895A1E21A2E95
:1013A000AA1BBB1BFD010DC0AA1FBB1FEE1FFF1F09
:1013B000A217B307E407F50720F0A21BB30BE40B59
:1013C000F50B661F771F881F991F1A9469F76095A0
:1013D0007095809590959B01AC01BD01CF0108955A
:1013E000A29FB001B39FC001A39F700D811D112466
:1013F000911DB29F700D811D1124911D0895DB0177
:101400008F939F930E94C309BF91AF91A29F800DBC
:10141000911DA39F900DB29F900D11240895991BCB
:1014200079E004C0991F961708F0961B881F7A95DB
:10143000C9F78095089597FB072E16F4009407D0FE
:1014400077FD09D00E94360A07FC05D03EF490953E
:1014500081959F4F0895709561957F4F08950E94E3
:10146000F009B7FF0895821B930B0895AA1BBB1BBD
:1014700051E107C0AA1FBB1FA617B70710F0A61B94
:10148000B70B881F991F5A95A9F780959095BC01B5
:10149000CD010895EE0FFF1F0590F491E02D099402
:0E14A00081E090E0F8940C94550AF894FFCF88
:1014AE00000000007A057A057A056B00670064007B
:1014BE00000000002603E20262006B0067005F007E
:1014CE008F0000000000FB04640493044205C40472
:0414DE00A204B604AA
:00000001FF
